{
  "contractName": "PetAdoption",
  "abi": [
    {
      "anonymous": false,
      "inputs": [
        {
          "indexed": false,
          "internalType": "uint256",
          "name": "_petId",
          "type": "uint256"
        },
        {
          "indexed": false,
          "internalType": "address",
          "name": "_adopter",
          "type": "address"
        }
      ],
      "name": "AdoptionEvent",
      "type": "event"
    },
    {
      "constant": true,
      "inputs": [
        {
          "internalType": "uint256",
          "name": "",
          "type": "uint256"
        }
      ],
      "name": "adopters",
      "outputs": [
        {
          "internalType": "address",
          "name": "owner",
          "type": "address"
        },
        {
          "internalType": "uint256",
          "name": "date",
          "type": "uint256"
        }
      ],
      "payable": false,
      "stateMutability": "view",
      "type": "function"
    },
    {
      "constant": false,
      "inputs": [
        {
          "internalType": "uint256",
          "name": "_petId",
          "type": "uint256"
        }
      ],
      "name": "adopt",
      "outputs": [],
      "payable": false,
      "stateMutability": "nonpayable",
      "type": "function"
    },
    {
      "constant": false,
      "inputs": [
        {
          "internalType": "uint256",
          "name": "_petId",
          "type": "uint256"
        }
      ],
      "name": "returnToShelter",
      "outputs": [],
      "payable": false,
      "stateMutability": "nonpayable",
      "type": "function"
    }
  ],
  "bytecode": "0x608060405234801561001057600080fd5b506103f2806100206000396000f3fe608060405234801561001057600080fd5b50600436106100415760003560e01c80631f6a54c31461004657806343ae80d3146100745780638588b2c5146100e9575b600080fd5b6100726004803603602081101561005c57600080fd5b8101908080359060200190929190505050610117565b005b6100a06004803603602081101561008a57600080fd5b8101908080359060200190929190505050610214565b604051808373ffffffffffffffffffffffffffffffffffffffff1673ffffffffffffffffffffffffffffffffffffffff1681526020018281526020019250505060405180910390f35b610115600480360360208110156100ff57600080fd5b810190808035906020019092919050505061025b565b005b3373ffffffffffffffffffffffffffffffffffffffff166000826010811061013b57fe5b6002020160000160009054906101000a900473ffffffffffffffffffffffffffffffffffffffff1673ffffffffffffffffffffffffffffffffffffffff1614801561019c5750601e6000826010811061019057fe5b60020201600101540142105b6101a557600080fd5b60008082601081106101b357fe5b6002020160000160006101000a81548173ffffffffffffffffffffffffffffffffffffffff021916908373ffffffffffffffffffffffffffffffffffffffff160217905550600080826010811061020657fe5b600202016001018190555050565b6000816010811061022157fe5b600202016000915090508060000160009054906101000a900473ffffffffffffffffffffffffffffffffffffffff16908060010154905082565b6000811015801561026d5750600f8111155b61027657600080fd5b600073ffffffffffffffffffffffffffffffffffffffff166000826010811061029b57fe5b6002020160000160009054906101000a900473ffffffffffffffffffffffffffffffffffffffff1673ffffffffffffffffffffffffffffffffffffffff16146102e357600080fd5b33600082601081106102f157fe5b6002020160000160006101000a81548173ffffffffffffffffffffffffffffffffffffffff021916908373ffffffffffffffffffffffffffffffffffffffff160217905550426000826010811061034457fe5b60020201600101819055507f5277c25de218daa8f88c3faeba9b8da05110d74093dd6d671e72faa56586b4378133604051808381526020018273ffffffffffffffffffffffffffffffffffffffff1673ffffffffffffffffffffffffffffffffffffffff1681526020019250505060405180910390a15056fea265627a7a723158203e1c657ece685b577dbe0db95d7252f3ef5b5ad20b2862db7bbee45f1af3b4c264736f6c63430005100032",
  "source": "// SPDX-License-Identifier: MIT\npragma solidity >=0.4.25 <0.7.0;\n\nimport \"./ConvertLib.sol\";\n\ncontract PetAdoption {\n    \n    Adoption[16] public adopters;\n    \n    struct Adoption {\n        address owner;\n        uint256 date;\n    }\n    \n    event AdoptionEvent(uint256 _petId, address _adopter);\n      \n    function adopt(uint256 _petId) public {\n        require(_petId >= 0 && _petId <= 15); //between limits\n        require(adopters[_petId].owner == address(0x0)); //is not adopted\n        adopters[_petId].owner = msg.sender;\n        adopters[_petId].date = block.timestamp;\n        emit AdoptionEvent(_petId, msg.sender);\n    }\n    \n    function returnToShelter(uint256 _petId) public {\n        require(adopters[_petId].owner == msg.sender && block.timestamp < adopters[_petId].date + 30 seconds);\n        adopters[_petId].owner = address(0x0);\n        adopters[_petId].date = 0;\n     }\n\n}",
  "sourcePath": "/home/david/dev/projects/flutter-ethereum-smartcontracts/pet-adoption-contract/contracts/PetAdoption.sol",
  "compiler": {
    "name": "solc",
    "version": "0.5.16+commit.9c3226ce.Emscripten.clang"
  },
  "schemaVersion": "3.3.4",
  "updatedAt": "2021-03-12T21:58:16.079Z",
  "networkType": "ethereum",
  "devdoc": {
    "methods": {}
  },
  "userdoc": {
    "methods": {}
  }
}